Microchip MPLAB XC8 Compiler V2.10 ()

Linker command line:

-W-3 --edf=C:\Program Files (x86)\Microchip\xc8\v2.10\pic\dat\en_msgs.txt \
  -cs -h+dist/default/debug\PIC_Code.X.debug.sym \
  --cmf=dist/default/debug\PIC_Code.X.debug.cmf -z -Q12F629 \
  -oC:\Users\landowne\AppData\Local\Temp\s444.2 --defsym=__MPLAB_BUILD=1 \
  -Mdist/default/debug/PIC_Code.X.debug.map -E1 -ver=XC8 --acfsm=1493 \
  -ASTACK=024h-05Dh -pstack=STACK -ACODE=00h-03FEh -ASTRCODE=00h-03FEh \
  -ASTRING=00h-0FFhx3,0300h-03FEh -ACONST=00h-0FFhx3,0300h-03FEh \
  -AENTRY=00h-0FFhx3,0300h-03FEh -ABANK0=020h-05Dh -ARAM=020h-05Dh \
  -AABS1=020h-05Fh -ACOMMON=05Eh-05Fh -ASFR0=00h-01Fh -ASFR1=080h-0DDh \
  -preset_vec=00h,intentry=04h,init,end_init -ppowerup=CODE -pcinit=CODE \
  -pfunctab=ENTRY -ACONFIG=02007h-02007h -pconfig=CONFIG -DCONFIG=2 \
  -AIDLOC=02000h-02003h -pidloc=IDLOC -DIDLOC=2 -AEEDATA=00h-07Fh/02100h \
  -peeprom_data=EEDATA -DEEDATA=2 -posccal=03FFh -DCODE=2 -DSTRCODE=2 \
  -DSTRING=2 -DCONST=2 -DENTRY=2 -k \
  C:\Users\landowne\AppData\Local\Temp\s444.o \
  dist/default/debug\PIC_Code.X.debug.o 

Object code version is 3.11

Machine type is 12F629



                Name                               Link     Load   Length Selector   Space Scale
C:\Users\landowne\AppData\Local\Temp\s444.o
                end_init                              B        B        1        8       0
                reset_vec                             0        0        1        0       0
dist/default/debug\PIC_Code.X.debug.o
                cinit                                 C        C        4        8       0
                intentry                              4        4        7        8       0
                text5                                56       56        2        8       0
                text4                                33       33       11        8       0
                text3                                53       53        3        8       0
                text2                                10       10       23        8       0
                text1                                44       44        C        8       0
                maintext                             50       50        3        8       0
                cstackBANK0                          20       20        3       20       1
                bssBANK0                             23       23        1       20       1

TOTAL           Name                               Link     Load   Length     Space
        CLASS   STACK          

        CLASS   CODE           
                end_init                              B        B        1         0
                cinit                                 C        C        4         0
                intentry                              4        4        7         0
                reset_vec                             0        0        1         0
                text5                                56       56        2         0
                text4                                33       33       11         0
                text3                                53       53        3         0
                text2                                10       10       23         0
                text1                                44       44        C         0
                maintext                             50       50        3         0

        CLASS   STRCODE        

        CLASS   STRING         

        CLASS   CONST          

        CLASS   ENTRY          

        CLASS   BANK0          
                cstackBANK0                          20       20        3         1
                bssBANK0                             23       23        1         1

        CLASS   RAM            

        CLASS   ABS1           
                abs_s1                               5E       5E        2         1

        CLASS   COMMON         

        CLASS   SFR0           

        CLASS   SFR1           

        CLASS   CONFIG         

        CLASS   IDLOC          

        CLASS   EEDATA         

        CLASS   BANK1          



SEGMENTS        Name                           Load    Length   Top    Selector   Space  Class     Delta

                reset_vec                      000000  000001  000001         0       0  CODE        2
                intentry                       000004  000054  000058         8       0  CODE        2
                cstackBANK0                    000020  000004  000024        20       1  BANK0       1


UNUSED ADDRESS RANGES

        Name                Unused          Largest block    Delta
        BANK0            024-05D            3A           1
        CODE             001-003             3           2
                         058-3FE           3A7
        CONFIG           2007-2007             1           2
        CONST            001-003             3           2
                         058-3FE           100
        EEDATA           2100-217F            80           2
        ENTRY            001-003             3           2
                         058-3FE           100
        IDLOC            2000-2003             4           2
        RAM              024-05D            3A           1
        SFR0             000-01F            20           1
        SFR1             080-0DD            5E           1
        STACK            024-05D            3A           1
        STRCODE          001-003             3           2
                         058-3FE           3A7
        STRING           001-003             3           2
                         058-3FE           100

                                  Symbol Table

_CMCONbits               (abs)        019
_GPIObits                (abs)        005
_INTCONbits              (abs)        00B
_PIR1bits                (abs)        00C
_T1CONbits               (abs)        010
_TMR1H                   (abs)        00F
_TMR1L                   (abs)        00E
_TRISIObits              (abs)        085
__Habs1                  abs1         7FE
__Hbank0                 bank0        7FE
__Hbank1                 bank1        7FE
__HbssBANK0              bssBANK0     7FE
__Hcinit                 cinit        010
__Hclrtext               clrtext      7FE
__Hcode                  code         7FE
__Hcommon                common       7FE
__Hconfig                config       000
__HcstackBANK0           cstackBANK0  7FE
__HcstackCOMMON          cstackCOMMON 7FE
__Heeprom_data           eeprom_data  000
__Hend_init              end_init     00C
__Hfunctab               functab      000
__Hidloc                 idloc        000
__Hinit                  init         00B
__Hintentry              intentry     00B
__Hmaintext              maintext     7FE
__Hosccal                osccal       3FF
__Hpowerup               powerup      000
__Hram                   ram          7FE
__Hreset_vec             reset_vec    001
__Hsfr0                  sfr0         7FE
__Hsfr1                  sfr1         7FE
__Hspace_0               (abs)        7FE
__Hspace_1               (abs)        7FE
__Hspace_2               (abs)        000
__Hspace_3               (abs)        000
__Hstack                 stack        000
__Hstrings               strings      7FE
__Htext                  text         7FE
__Labs1                  abs1         7FE
__Lbank0                 bank0        7FE
__Lbank1                 bank1        7FE
__LbssBANK0              bssBANK0     7FE
__Lcinit                 cinit        00C
__Lclrtext               clrtext      7FE
__Lcode                  code         7FE
__Lcommon                common       7FE
__Lconfig                config       000
__LcstackBANK0           cstackBANK0  7FE
__LcstackCOMMON          cstackCOMMON 7FE
__Leeprom_data           eeprom_data  000
__Lend_init              end_init     00B
__Lfunctab               functab      000
__Lidloc                 idloc        000
__Linit                  init         00B
__Lintentry              intentry     004
__Lmaintext              maintext     7FE
__Losccal                osccal       3FF
__Lpowerup               powerup      000
__Lram                   ram          7FE
__Lreset_vec             reset_vec    000
__Lsfr0                  sfr0         7FE
__Lsfr1                  sfr1         7FE
__Lspace_0               (abs)        000
__Lspace_1               (abs)        000
__Lspace_2               (abs)        000
__Lspace_3               (abs)        000
__Lstack                 stack        000
__Lstrings               strings      7FE
__Ltext                  text         7FE
__S0                     (abs)        058
__S1                     (abs)        024
__S2                     (abs)        000
__S3                     (abs)        000
___int_sp                stack        000
___latbits               (abs)        000
___osccal_val            osccal       3FF
___sp                    stack        000
___stackhi               (abs)        000
___stacklo               (abs)        000
__end_of__initialization cinit        00E
__end_of_go2Sleep        text5        058
__end_of_initialize      text1        050
__end_of_main            maintext     053
__end_of_myISR           text2        033
__end_of_timerCounter    text4        044
__end_of_turnOnTimer1    text3        056
__initialization         cinit        00C
__pbssBANK0              bssBANK0     023
__pcstackBANK0           cstackBANK0  020
__pcstackCOMMON          cstackCOMMON 000
__pintentry              intentry     004
__pmaintext              maintext     050
__ptext1                 text1        044
__ptext2                 text2        010
__ptext3                 text3        053
__ptext4                 text4        033
__ptext5                 text5        056
__size_of_go2Sleep       (abs)        000
__size_of_initialize     (abs)        000
__size_of_main           (abs)        000
__size_of_myISR          (abs)        000
__size_of_timerCounter   (abs)        000
__size_of_turnOnTimer1   (abs)        000
_go2Sleep                text5        056
_initialize              text1        044
_main                    maintext     050
_myISR                   text2        010
_timerCounter            text4        033
_turnOnTimer1            text3        053
btemp                    (abs)        05E
end_of_initialization    cinit        00E
interrupt_function       intentry     004
intlevel0                functab      000
intlevel1                functab      000
intlevel2                functab      000
intlevel3                functab      000
intlevel4                functab      000
intlevel5                functab      000
nosup@@$_$_CONFIG        (abs)        000
reset_vec                reset_vec    000
saved_w                  (abs)        05E
start                    init         00B
start_initialization     cinit        00C
timerCounter@count       bssBANK0     023
wtemp0                   (abs)        05E


FUNCTION INFORMATION:

 *************** function _main *****************
 Defined at:
		line 39 in file "main.c"
 Parameters:    Size  Location     Type
		None
 Auto vars:     Size  Location     Type
		None
 Return value:  Size  Location     Type
                  1    wreg      void 
 Registers used:
		status,2, status,0, pclath, cstack
 Tracked objects:
		On entry : 
		On exit  : 
		Unchanged: 
 Data sizes:     COMMON   BANK0
      Params:         0       0
      Locals:         0       0
      Temps:          0       0
      Totals:         0       0
Total ram usage:        0 bytes
 Hardware stack levels required when called:    4
 This function calls:
		_initialize
 This function is called by:
		Startup code after reset
 This function uses a non-reentrant model


 *************** function _initialize *****************
 Defined at:
		line 51 in file "main.c"
 Parameters:    Size  Location     Type
		None
 Auto vars:     Size  Location     Type
		None
 Return value:  Size  Location     Type
                  1    wreg      void 
 Registers used:
		None
 Tracked objects:
		On entry : 
		On exit  : 
		Unchanged: 
 Data sizes:     COMMON   BANK0
      Params:         0       0
      Locals:         0       0
      Temps:          0       0
      Totals:         0       0
Total ram usage:        0 bytes
 Hardware stack levels used:    1
 Hardware stack levels required when called:    3
 This function calls:
		Nothing
 This function is called by:
		_main
 This function uses a non-reentrant model


 *************** function _myISR *****************
 Defined at:
		line 137 in file "main.c"
 Parameters:    Size  Location     Type
		None
 Auto vars:     Size  Location     Type
		None
 Return value:  Size  Location     Type
                  1    wreg      void 
 Registers used:
		wreg, status,2, status,0, pclath, cstack
 Tracked objects:
		On entry : 
		On exit  : 
		Unchanged: 
 Data sizes:     COMMON   BANK0
      Params:         0       0
      Locals:         0       0
      Temps:          0       2
      Totals:         0       2
Total ram usage:        2 bytes
 Hardware stack levels used:    1
 Hardware stack levels required when called:    2
 This function calls:
		_timerCounter
		_turnOnTimer1
 This function is called by:
		Interrupt level 1
 This function uses a non-reentrant model


 *************** function _turnOnTimer1 *****************
 Defined at:
		line 108 in file "main.c"
 Parameters:    Size  Location     Type
		None
 Auto vars:     Size  Location     Type
		None
 Return value:  Size  Location     Type
                  1    wreg      void 
 Registers used:
		None
 Tracked objects:
		On entry : 
		On exit  : 
		Unchanged: 
 Data sizes:     COMMON   BANK0
      Params:         0       0
      Locals:         0       0
      Temps:          0       0
      Totals:         0       0
Total ram usage:        0 bytes
 Hardware stack levels used:    1
 This function calls:
		Nothing
 This function is called by:
		_myISR
 This function uses a non-reentrant model


 *************** function _timerCounter *****************
 Defined at:
		line 113 in file "main.c"
 Parameters:    Size  Location     Type
		None
 Auto vars:     Size  Location     Type
		None
 Return value:  Size  Location     Type
                  1    wreg      void 
 Registers used:
		wreg, status,2, status,0, pclath, cstack
 Tracked objects:
		On entry : 
		On exit  : 
		Unchanged: 
 Data sizes:     COMMON   BANK0
      Params:         0       0
      Locals:         0       0
      Temps:          0       1
      Totals:         0       1
Total ram usage:        1 bytes
 Hardware stack levels used:    1
 Hardware stack levels required when called:    1
 This function calls:
		_go2Sleep
 This function is called by:
		_myISR
 This function uses a non-reentrant model


 *************** function _go2Sleep *****************
 Defined at:
		line 132 in file "main.c"
 Parameters:    Size  Location     Type
		None
 Auto vars:     Size  Location     Type
		None
 Return value:  Size  Location     Type
                  1    wreg      void 
 Registers used:
		None
 Tracked objects:
		On entry : 
		On exit  : 
		Unchanged: 
 Data sizes:     COMMON   BANK0
      Params:         0       0
      Locals:         0       0
      Temps:          0       0
      Totals:         0       0
Total ram usage:        0 bytes
 Hardware stack levels used:    1
 This function calls:
		Nothing
 This function is called by:
		_timerCounter
 This function uses a non-reentrant model



MODULE INFORMATION

Module		Function		Class		Link	Load	Size
shared
		__initialization		CODE           	000C	0000	3

shared estimated size: 3

main.c
		_timerCounter  		CODE           	0033	0000	18
		_myISR         		CODE           	0010	0000	36
		_main          		CODE           	0050	0000	4
		_turnOnTimer1  		CODE           	0053	0000	4
		_go2Sleep      		CODE           	0056	0000	3
		_initialize    		CODE           	0044	0000	13

main.c estimated size: 78

