:020000040000FA
:020000000B28CB
:10000800DE00030E8312A1000A08A20010280C28A3
:100018008312A301830166280B1C132814281A28AD
:100028000B108518182819281A2869208B1C1D28D8
:100038001E2826288B1083120519232824282D28EA
:1000480005142D2883120C1C2A282B282D280C1067
:100058005120831222088A00210E8300DE0E5E0ED4
:1000680009008316051085140515051685168312D3
:1000780019149914191505148B170B178B1583165A
:10008800961401130B168113951415150C1483126D
:10009800101690168F018E01080001308312A000FF
:1000A8002008A3078F018E018C302306031D5D28CD
:1000B8005E2861281010A301622008008312051031
:1000C80063000800352067280B28831210140800E5
:02400E00B431CB
:00000001FF
